{
  "contractName": "CryptoCoders",
  "abi": [
    {
      "inputs": [],
      "stateMutability": "nonpayable",
      "type": "constructor"
    },
    {
      "anonymous": false,
      "inputs": [
        {
          "indexed": true,
          "internalType": "address",
          "name": "owner",
          "type": "address"
        },
        {
          "indexed": true,
          "internalType": "address",
          "name": "approved",
          "type": "address"
        },
        {
          "indexed": true,
          "internalType": "uint256",
          "name": "tokenId",
          "type": "uint256"
        }
      ],
      "name": "Approval",
      "type": "event"
    },
    {
      "anonymous": false,
      "inputs": [
        {
          "indexed": true,
          "internalType": "address",
          "name": "owner",
          "type": "address"
        },
        {
          "indexed": true,
          "internalType": "address",
          "name": "operator",
          "type": "address"
        },
        {
          "indexed": false,
          "internalType": "bool",
          "name": "approved",
          "type": "bool"
        }
      ],
      "name": "ApprovalForAll",
      "type": "event"
    },
    {
      "anonymous": false,
      "inputs": [
        {
          "indexed": true,
          "internalType": "address",
          "name": "from",
          "type": "address"
        },
        {
          "indexed": true,
          "internalType": "address",
          "name": "to",
          "type": "address"
        },
        {
          "indexed": true,
          "internalType": "uint256",
          "name": "tokenId",
          "type": "uint256"
        }
      ],
      "name": "Transfer",
      "type": "event"
    },
    {
      "inputs": [
        {
          "internalType": "address",
          "name": "to",
          "type": "address"
        },
        {
          "internalType": "uint256",
          "name": "tokenId",
          "type": "uint256"
        }
      ],
      "name": "approve",
      "outputs": [],
      "stateMutability": "nonpayable",
      "type": "function"
    },
    {
      "inputs": [
        {
          "internalType": "address",
          "name": "owner",
          "type": "address"
        }
      ],
      "name": "balanceOf",
      "outputs": [
        {
          "internalType": "uint256",
          "name": "",
          "type": "uint256"
        }
      ],
      "stateMutability": "view",
      "type": "function"
    },
    {
      "inputs": [
        {
          "internalType": "uint256",
          "name": "",
          "type": "uint256"
        }
      ],
      "name": "coders",
      "outputs": [
        {
          "internalType": "string",
          "name": "",
          "type": "string"
        }
      ],
      "stateMutability": "view",
      "type": "function"
    },
    {
      "inputs": [
        {
          "internalType": "uint256",
          "name": "tokenId",
          "type": "uint256"
        }
      ],
      "name": "getApproved",
      "outputs": [
        {
          "internalType": "address",
          "name": "",
          "type": "address"
        }
      ],
      "stateMutability": "view",
      "type": "function"
    },
    {
      "inputs": [
        {
          "internalType": "address",
          "name": "owner",
          "type": "address"
        },
        {
          "internalType": "address",
          "name": "operator",
          "type": "address"
        }
      ],
      "name": "isApprovedForAll",
      "outputs": [
        {
          "internalType": "bool",
          "name": "",
          "type": "bool"
        }
      ],
      "stateMutability": "view",
      "type": "function"
    },
    {
      "inputs": [],
      "name": "name",
      "outputs": [
        {
          "internalType": "string",
          "name": "",
          "type": "string"
        }
      ],
      "stateMutability": "view",
      "type": "function"
    },
    {
      "inputs": [
        {
          "internalType": "uint256",
          "name": "tokenId",
          "type": "uint256"
        }
      ],
      "name": "ownerOf",
      "outputs": [
        {
          "internalType": "address",
          "name": "",
          "type": "address"
        }
      ],
      "stateMutability": "view",
      "type": "function"
    },
    {
      "inputs": [
        {
          "internalType": "address",
          "name": "from",
          "type": "address"
        },
        {
          "internalType": "address",
          "name": "to",
          "type": "address"
        },
        {
          "internalType": "uint256",
          "name": "tokenId",
          "type": "uint256"
        }
      ],
      "name": "safeTransferFrom",
      "outputs": [],
      "stateMutability": "nonpayable",
      "type": "function"
    },
    {
      "inputs": [
        {
          "internalType": "address",
          "name": "from",
          "type": "address"
        },
        {
          "internalType": "address",
          "name": "to",
          "type": "address"
        },
        {
          "internalType": "uint256",
          "name": "tokenId",
          "type": "uint256"
        },
        {
          "internalType": "bytes",
          "name": "data",
          "type": "bytes"
        }
      ],
      "name": "safeTransferFrom",
      "outputs": [],
      "stateMutability": "nonpayable",
      "type": "function"
    },
    {
      "inputs": [
        {
          "internalType": "address",
          "name": "operator",
          "type": "address"
        },
        {
          "internalType": "bool",
          "name": "approved",
          "type": "bool"
        }
      ],
      "name": "setApprovalForAll",
      "outputs": [],
      "stateMutability": "nonpayable",
      "type": "function"
    },
    {
      "inputs": [],
      "name": "symbol",
      "outputs": [
        {
          "internalType": "string",
          "name": "",
          "type": "string"
        }
      ],
      "stateMutability": "view",
      "type": "function"
    },
    {
      "inputs": [
        {
          "internalType": "uint256",
          "name": "index",
          "type": "uint256"
        }
      ],
      "name": "tokenByIndex",
      "outputs": [
        {
          "internalType": "uint256",
          "name": "",
          "type": "uint256"
        }
      ],
      "stateMutability": "view",
      "type": "function"
    },
    {
      "inputs": [
        {
          "internalType": "address",
          "name": "owner",
          "type": "address"
        },
        {
          "internalType": "uint256",
          "name": "index",
          "type": "uint256"
        }
      ],
      "name": "tokenOfOwnerByIndex",
      "outputs": [
        {
          "internalType": "uint256",
          "name": "",
          "type": "uint256"
        }
      ],
      "stateMutability": "view",
      "type": "function"
    },
    {
      "inputs": [
        {
          "internalType": "uint256",
          "name": "tokenId",
          "type": "uint256"
        }
      ],
      "name": "tokenURI",
      "outputs": [
        {
          "internalType": "string",
          "name": "",
          "type": "string"
        }
      ],
      "stateMutability": "view",
      "type": "function"
    },
    {
      "inputs": [],
      "name": "totalSupply",
      "outputs": [
        {
          "internalType": "uint256",
          "name": "",
          "type": "uint256"
        }
      ],
      "stateMutability": "view",
      "type": "function"
    },
    {
      "inputs": [
        {
          "internalType": "address",
          "name": "from",
          "type": "address"
        },
        {
          "internalType": "address",
          "name": "to",
          "type": "address"
        },
        {
          "internalType": "uint256",
          "name": "tokenId",
          "type": "uint256"
        }
      ],
      "name": "transferFrom",
      "outputs": [],
      "stateMutability": "nonpayable",
      "type": "function"
    },
    {
      "inputs": [
        {
          "internalType": "string",
          "name": "coder",
          "type": "string"
        }
      ],
      "name": "mint",
      "outputs": [],
      "stateMutability": "nonpayable",
      "type": "function"
    },
    {
      "inputs": [
        {
          "internalType": "bytes4",
          "name": "interfaceId",
          "type": "bytes4"
        }
      ],
      "name": "supportsInterface",
      "outputs": [
        {
          "internalType": "bool",
          "name": "",
          "type": "bool"
        }
      ],
      "stateMutability": "view",
      "type": "function"
    }
  ],
  "bytecode": "0x60806040523480156200001157600080fd5b506040518060400160405280600c81526020017f43727970746f436f6465727300000000000000000000000000000000000000008152506040518060400160405280600381526020017f435353000000000000000000000000000000000000000000000000000000000081525081600090816200008f919062000324565b508060019081620000a1919062000324565b5050506200040b565b600081519050919050565b7f4e487b7100000000000000000000000000000000000000000000000000000000600052604160045260246000fd5b7f4e487b7100000000000000000000000000000000000000000000000000000000600052602260045260246000fd5b600060028204905060018216806200012c57607f821691505b602082108103620001425762000141620000e4565b5b50919050565b60008190508160005260206000209050919050565b60006020601f8301049050919050565b600082821b905092915050565b600060088302620001ac7fffffffffffffffffffffffffffffffffffffffffffffffffffffffffffffffff826200016d565b620001b886836200016d565b95508019841693508086168417925050509392505050565b6000819050919050565b6000819050919050565b600062000205620001ff620001f984620001d0565b620001da565b620001d0565b9050919050565b6000819050919050565b6200022183620001e4565b6200023962000230826200020c565b8484546200017a565b825550505050565b600090565b6200025062000241565b6200025d81848462000216565b505050565b5b8181101562000285576200027960008262000246565b60018101905062000263565b5050565b601f821115620002d4576200029e8162000148565b620002a9846200015d565b81016020851015620002b9578190505b620002d1620002c8856200015d565b83018262000262565b50505b505050565b600082821c905092915050565b6000620002f960001984600802620002d9565b1980831691505092915050565b6000620003148383620002e6565b9150826002028217905092915050565b6200032f82620000aa565b67ffffffffffffffff8111156200034b576200034a620000b5565b5b62000357825462000113565b6200036482828562000289565b600060209050601f8311600181146200039c576000841562000387578287015190505b62000393858262000306565b86555062000403565b601f198416620003ac8662000148565b60005b82811015620003d657848901518255600182019150602085019450602081019050620003af565b86831015620003f65784890151620003f2601f891682620002e6565b8355505b6001600288020188555050505b505050505050565b613136806200041b6000396000f3fe608060405234801561001057600080fd5b50600436106101165760003560e01c80634f6ccce7116100a2578063a22cb46511610071578063a22cb46514610319578063b88d4fde14610335578063c87b56dd14610351578063d85d3d2714610381578063e985e9c51461039d57610116565b80634f6ccce71461026b5780636352211e1461029b57806370a08231146102cb57806395d89b41146102fb57610116565b806318160ddd116100e957806318160ddd146101b557806323b872dd146101d35780632f745c59146101ef57806342842e0e1461021f5780634cfa16f91461023b57610116565b806301ffc9a71461011b57806306fdde031461014b578063081812fc14610169578063095ea7b314610199575b600080fd5b61013560048036038101906101309190611df0565b6103cd565b6040516101429190611e38565b60405180910390f35b6101536103df565b6040516101609190611ee3565b60405180910390f35b610183600480360381019061017e9190611f3b565b610471565b6040516101909190611fa9565b60405180910390f35b6101b360048036038101906101ae9190611ff0565b6104b7565b005b6101bd6105ce565b6040516101ca919061203f565b60405180910390f35b6101ed60048036038101906101e8919061205a565b6105db565b005b61020960048036038101906102049190611ff0565b61063b565b604051610216919061203f565b60405180910390f35b6102396004803603810190610234919061205a565b6106e0565b005b61025560048036038101906102509190611f3b565b610700565b6040516102629190611ee3565b60405180910390f35b61028560048036038101906102809190611f3b565b6107ac565b604051610292919061203f565b60405180910390f35b6102b560048036038101906102b09190611f3b565b61081d565b6040516102c29190611fa9565b60405180910390f35b6102e560048036038101906102e091906120ad565b6108ce565b6040516102f2919061203f565b60405180910390f35b610303610985565b6040516103109190611ee3565b60405180910390f35b610333600480360381019061032e9190612106565b610a17565b005b61034f600480360381019061034a919061227b565b610a2d565b005b61036b60048036038101906103669190611f3b565b610a8f565b6040516103789190611ee3565b60405180910390f35b61039b6004803603810190610396919061239f565b610af7565b005b6103b760048036038101906103b291906123e8565b610bc3565b6040516103c49190611e38565b60405180910390f35b60006103d882610c57565b9050919050565b6060600080546103ee90612457565b80601f016020809104026020016040519081016040528092919081815260200182805461041a90612457565b80156104675780601f1061043c57610100808354040283529160200191610467565b820191906000526020600020905b81548152906001019060200180831161044a57829003601f168201915b5050505050905090565b600061047c82610cd1565b6004600083815260200190815260200160002060009054906101000a900473ffffffffffffffffffffffffffffffffffffffff169050919050565b60006104c28261081d565b90508073ffffffffffffffffffffffffffffffffffffffff168373ffffffffffffffffffffffffffffffffffffffff1603610532576040517f08c379a0000000000000000000000000000000000000000000000000000000008152600401610529906124fa565b60405180910390fd5b8073ffffffffffffffffffffffffffffffffffffffff16610551610d1c565b73ffffffffffffffffffffffffffffffffffffffff161480610580575061057f8161057a610d1c565b610bc3565b5b6105bf576040517f08c379a00000000000000000000000000000000000000000000000000000000081526004016105b69061258c565b60405180910390fd5b6105c98383610d24565b505050565b6000600880549050905090565b6105ec6105e6610d1c565b82610ddd565b61062b576040517f08c379a00000000000000000000000000000000000000000000000000000000081526004016106229061261e565b60405180910390fd5b610636838383610e72565b505050565b6000610646836108ce565b8210610687576040517f08c379a000000000000000000000000000000000000000000000000000000000815260040161067e906126b0565b60405180910390fd5b600660008473ffffffffffffffffffffffffffffffffffffffff1673ffffffffffffffffffffffffffffffffffffffff168152602001908152602001600020600083815260200190815260200160002054905092915050565b6106fb83838360405180602001604052806000815250610a2d565b505050565b600a818154811061071057600080fd5b90600052602060002001600091509050805461072b90612457565b80601f016020809104026020016040519081016040528092919081815260200182805461075790612457565b80156107a45780601f10610779576101008083540402835291602001916107a4565b820191906000526020600020905b81548152906001019060200180831161078757829003601f168201915b505050505081565b60006107b66105ce565b82106107f7576040517f08c379a00000000000000000000000000000000000000000000000000000000081526004016107ee90612742565b60405180910390fd5b6008828154811061080b5761080a612762565b5b90600052602060002001549050919050565b6000806002600084815260200190815260200160002060009054906101000a900473ffffffffffffffffffffffffffffffffffffffff169050600073ffffffffffffffffffffffffffffffffffffffff168173ffffffffffffffffffffffffffffffffffffffff16036108c5576040517f08c379a00000000000000000000000000000000000000000000000000000000081526004016108bc906127dd565b60405180910390fd5b80915050919050565b60008073ffffffffffffffffffffffffffffffffffffffff168273ffffffffffffffffffffffffffffffffffffffff160361093e576040517f08c379a00000000000000000000000000000000000000000000000000000000081526004016109359061286f565b60405180910390fd5b600360008373ffffffffffffffffffffffffffffffffffffffff1673ffffffffffffffffffffffffffffffffffffffff168152602001908152602001600020549050919050565b60606001805461099490612457565b80601f01602080910402602001604051908101604052809291908181526020018280546109c090612457565b8015610a0d5780601f106109e257610100808354040283529160200191610a0d565b820191906000526020600020905b8154815290600101906020018083116109f057829003601f168201915b5050505050905090565b610a29610a22610d1c565b83836110d8565b5050565b610a3e610a38610d1c565b83610ddd565b610a7d576040517f08c379a0000000000000000000000000000000000000000000000000000000008152600401610a749061261e565b60405180910390fd5b610a8984848484611244565b50505050565b6060610a9a82610cd1565b6000610aa46112a0565b90506000815111610ac45760405180602001604052806000815250610aef565b80610ace846112b7565b604051602001610adf9291906128cb565b6040516020818303038152906040525b915050919050565b60011515600b82604051610b0b91906128ef565b908152602001604051809103902060009054906101000a900460ff16151503610b3357600080fd5b600a81908060018154018082558091505060019003906000526020600020016000909190919091509081610b679190612ab2565b5060006001600a80549050610b7c9190612bb3565b9050610b883382611417565b6001600b83604051610b9a91906128ef565b908152602001604051809103902060006101000a81548160ff0219169083151502179055505050565b6000600560008473ffffffffffffffffffffffffffffffffffffffff1673ffffffffffffffffffffffffffffffffffffffff16815260200190815260200160002060008373ffffffffffffffffffffffffffffffffffffffff1673ffffffffffffffffffffffffffffffffffffffff16815260200190815260200160002060009054906101000a900460ff16905092915050565b60007f780e9d63000000000000000000000000000000000000000000000000000000007bffffffffffffffffffffffffffffffffffffffffffffffffffffffff1916827bffffffffffffffffffffffffffffffffffffffffffffffffffffffff19161480610cca5750610cc9826115f0565b5b9050919050565b610cda816116d2565b610d19576040517f08c379a0000000000000000000000000000000000000000000000000000000008152600401610d10906127dd565b60405180910390fd5b50565b600033905090565b816004600083815260200190815260200160002060006101000a81548173ffffffffffffffffffffffffffffffffffffffff021916908373ffffffffffffffffffffffffffffffffffffffff160217905550808273ffffffffffffffffffffffffffffffffffffffff16610d978361081d565b73ffffffffffffffffffffffffffffffffffffffff167f8c5be1e5ebec7d5bd14f71427d1e84f3dd0314c0f7b2291e5b200ac8c7c3b92560405160405180910390a45050565b600080610de98361081d565b90508073ffffffffffffffffffffffffffffffffffffffff168473ffffffffffffffffffffffffffffffffffffffff161480610e2b5750610e2a8185610bc3565b5b80610e6957508373ffffffffffffffffffffffffffffffffffffffff16610e5184610471565b73ffffffffffffffffffffffffffffffffffffffff16145b91505092915050565b8273ffffffffffffffffffffffffffffffffffffffff16610e928261081d565b73ffffffffffffffffffffffffffffffffffffffff1614610ee8576040517f08c379a0000000000000000000000000000000000000000000000000000000008152600401610edf90612c59565b60405180910390fd5b600073ffffffffffffffffffffffffffffffffffffffff168273ffffffffffffffffffffffffffffffffffffffff1603610f57576040517f08c379a0000000000000000000000000000000000000000000000000000000008152600401610f4e90612ceb565b60405180910390fd5b610f6283838361173e565b610f6d600082610d24565b6001600360008573ffffffffffffffffffffffffffffffffffffffff1673ffffffffffffffffffffffffffffffffffffffff1681526020019081526020016000206000828254610fbd9190612bb3565b925050819055506001600360008473ffffffffffffffffffffffffffffffffffffffff1673ffffffffffffffffffffffffffffffffffffffff16815260200190815260200160002060008282546110149190612d0b565b92505081905550816002600083815260200190815260200160002060006101000a81548173ffffffffffffffffffffffffffffffffffffffff021916908373ffffffffffffffffffffffffffffffffffffffff160217905550808273ffffffffffffffffffffffffffffffffffffffff168473ffffffffffffffffffffffffffffffffffffffff167fddf252ad1be2c89b69c2b068fc378daa952ba7f163c4a11628f55a4df523b3ef60405160405180910390a46110d383838361174e565b505050565b8173ffffffffffffffffffffffffffffffffffffffff168373ffffffffffffffffffffffffffffffffffffffff1603611146576040517f08c379a000000000000000000000000000000000000000000000000000000000815260040161113d90612d8b565b60405180910390fd5b80600560008573ffffffffffffffffffffffffffffffffffffffff1673ffffffffffffffffffffffffffffffffffffffff16815260200190815260200160002060008473ffffffffffffffffffffffffffffffffffffffff1673ffffffffffffffffffffffffffffffffffffffff16815260200190815260200160002060006101000a81548160ff0219169083151502179055508173ffffffffffffffffffffffffffffffffffffffff168373ffffffffffffffffffffffffffffffffffffffff167f17307eab39ab6107e8899845ad3d59bd9653f200f220920489ca2b5937696c31836040516112379190611e38565b60405180910390a3505050565b61124f848484610e72565b61125b84848484611753565b61129a576040517f08c379a000000000000000000000000000000000000000000000000000000000815260040161129190612e1d565b60405180910390fd5b50505050565b606060405180602001604052806000815250905090565b6060600082036112fe576040518060400160405280600181526020017f30000000000000000000000000000000000000000000000000000000000000008152509050611412565b600082905060005b6000821461133057808061131990612e3d565b915050600a826113299190612eb4565b9150611306565b60008167ffffffffffffffff81111561134c5761134b612150565b5b6040519080825280601f01601f19166020018201604052801561137e5781602001600182028036833780820191505090505b5090505b6000851461140b576001826113979190612bb3565b9150600a856113a69190612ee5565b60306113b29190612d0b565b60f81b8183815181106113c8576113c7612762565b5b60200101907effffffffffffffffffffffffffffffffffffffffffffffffffffffffffffff1916908160001a905350600a856114049190612eb4565b9450611382565b8093505050505b919050565b600073ffffffffffffffffffffffffffffffffffffffff168273ffffffffffffffffffffffffffffffffffffffff1603611486576040517f08c379a000000000000000000000000000000000000000000000000000000000815260040161147d90612f62565b60405180910390fd5b61148f816116d2565b156114cf576040517f08c379a00000000000000000000000000000000000000000000000000000000081526004016114c690612fce565b60405180910390fd5b6114db6000838361173e565b6001600360008473ffffffffffffffffffffffffffffffffffffffff1673ffffffffffffffffffffffffffffffffffffffff168152602001908152602001600020600082825461152b9190612d0b565b92505081905550816002600083815260200190815260200160002060006101000a81548173ffffffffffffffffffffffffffffffffffffffff021916908373ffffffffffffffffffffffffffffffffffffffff160217905550808273ffffffffffffffffffffffffffffffffffffffff16600073ffffffffffffffffffffffffffffffffffffffff167fddf252ad1be2c89b69c2b068fc378daa952ba7f163c4a11628f55a4df523b3ef60405160405180910390a46115ec6000838361174e565b5050565b60007f80ac58cd000000000000000000000000000000000000000000000000000000007bffffffffffffffffffffffffffffffffffffffffffffffffffffffff1916827bffffffffffffffffffffffffffffffffffffffffffffffffffffffff191614806116bb57507f5b5e139f000000000000000000000000000000000000000000000000000000007bffffffffffffffffffffffffffffffffffffffffffffffffffffffff1916827bffffffffffffffffffffffffffffffffffffffffffffffffffffffff1916145b806116cb57506116ca826118da565b5b9050919050565b60008073ffffffffffffffffffffffffffffffffffffffff166002600084815260200190815260200160002060009054906101000a900473ffffffffffffffffffffffffffffffffffffffff1673ffffffffffffffffffffffffffffffffffffffff1614159050919050565b611749838383611944565b505050565b505050565b60006117748473ffffffffffffffffffffffffffffffffffffffff16611a56565b156118cd578373ffffffffffffffffffffffffffffffffffffffff1663150b7a0261179d610d1c565b8786866040518563ffffffff1660e01b81526004016117bf9493929190613043565b6020604051808303816000875af19250505080156117fb57506040513d601f19601f820116820180604052508101906117f891906130a4565b60015b61187d573d806000811461182b576040519150601f19603f3d011682016040523d82523d6000602084013e611830565b606091505b506000815103611875576040517f08c379a000000000000000000000000000000000000000000000000000000000815260040161186c90612e1d565b60405180910390fd5b805181602001fd5b63150b7a0260e01b7bffffffffffffffffffffffffffffffffffffffffffffffffffffffff1916817bffffffffffffffffffffffffffffffffffffffffffffffffffffffff1916149150506118d2565b600190505b949350505050565b60007f01ffc9a7000000000000000000000000000000000000000000000000000000007bffffffffffffffffffffffffffffffffffffffffffffffffffffffff1916827bffffffffffffffffffffffffffffffffffffffffffffffffffffffff1916149050919050565b61194f838383611a79565b600073ffffffffffffffffffffffffffffffffffffffff168373ffffffffffffffffffffffffffffffffffffffff16036119915761198c81611a7e565b6119d0565b8173ffffffffffffffffffffffffffffffffffffffff168373ffffffffffffffffffffffffffffffffffffffff16146119cf576119ce8382611ac7565b5b5b600073ffffffffffffffffffffffffffffffffffffffff168273ffffffffffffffffffffffffffffffffffffffff1603611a1257611a0d81611c34565b611a51565b8273ffffffffffffffffffffffffffffffffffffffff168273ffffffffffffffffffffffffffffffffffffffff1614611a5057611a4f8282611d05565b5b5b505050565b6000808273ffffffffffffffffffffffffffffffffffffffff163b119050919050565b505050565b6008805490506009600083815260200190815260200160002081905550600881908060018154018082558091505060019003906000526020600020016000909190919091505550565b60006001611ad4846108ce565b611ade9190612bb3565b9050600060076000848152602001908152602001600020549050818114611bc3576000600660008673ffffffffffffffffffffffffffffffffffffffff1673ffffffffffffffffffffffffffffffffffffffff168152602001908152602001600020600084815260200190815260200160002054905080600660008773ffffffffffffffffffffffffffffffffffffffff1673ffffffffffffffffffffffffffffffffffffffff168152602001908152602001600020600084815260200190815260200160002081905550816007600083815260200190815260200160002081905550505b6007600084815260200190815260200160002060009055600660008573ffffffffffffffffffffffffffffffffffffffff1673ffffffffffffffffffffffffffffffffffffffff16815260200190815260200160002060008381526020019081526020016000206000905550505050565b60006001600880549050611c489190612bb3565b9050600060096000848152602001908152602001600020549050600060088381548110611c7857611c77612762565b5b906000526020600020015490508060088381548110611c9a57611c99612762565b5b906000526020600020018190555081600960008381526020019081526020016000208190555060096000858152602001908152602001600020600090556008805480611ce957611ce86130d1565b5b6001900381819060005260206000200160009055905550505050565b6000611d10836108ce565b905081600660008573ffffffffffffffffffffffffffffffffffffffff1673ffffffffffffffffffffffffffffffffffffffff168152602001908152602001600020600083815260200190815260200160002081905550806007600084815260200190815260200160002081905550505050565b6000604051905090565b600080fd5b600080fd5b60007fffffffff0000000000000000000000000000000000000000000000000000000082169050919050565b611dcd81611d98565b8114611dd857600080fd5b50565b600081359050611dea81611dc4565b92915050565b600060208284031215611e0657611e05611d8e565b5b6000611e1484828501611ddb565b91505092915050565b60008115159050919050565b611e3281611e1d565b82525050565b6000602082019050611e4d6000830184611e29565b92915050565b600081519050919050565b600082825260208201905092915050565b60005b83811015611e8d578082015181840152602081019050611e72565b60008484015250505050565b6000601f19601f8301169050919050565b6000611eb582611e53565b611ebf8185611e5e565b9350611ecf818560208601611e6f565b611ed881611e99565b840191505092915050565b60006020820190508181036000830152611efd8184611eaa565b905092915050565b6000819050919050565b611f1881611f05565b8114611f2357600080fd5b50565b600081359050611f3581611f0f565b92915050565b600060208284031215611f5157611f50611d8e565b5b6000611f5f84828501611f26565b91505092915050565b600073ffffffffffffffffffffffffffffffffffffffff82169050919050565b6000611f9382611f68565b9050919050565b611fa381611f88565b82525050565b6000602082019050611fbe6000830184611f9a565b92915050565b611fcd81611f88565b8114611fd857600080fd5b50565b600081359050611fea81611fc4565b92915050565b6000806040838503121561200757612006611d8e565b5b600061201585828601611fdb565b925050602061202685828601611f26565b9150509250929050565b61203981611f05565b82525050565b60006020820190506120546000830184612030565b92915050565b60008060006060848603121561207357612072611d8e565b5b600061208186828701611fdb565b935050602061209286828701611fdb565b92505060406120a386828701611f26565b9150509250925092565b6000602082840312156120c3576120c2611d8e565b5b60006120d184828501611fdb565b91505092915050565b6120e381611e1d565b81146120ee57600080fd5b50565b600081359050612100816120da565b92915050565b6000806040838503121561211d5761211c611d8e565b5b600061212b85828601611fdb565b925050602061213c858286016120f1565b9150509250929050565b600080fd5b600080fd5b7f4e487b7100000000000000000000000000000000000000000000000000000000600052604160045260246000fd5b61218882611e99565b810181811067ffffffffffffffff821117156121a7576121a6612150565b5b80604052505050565b60006121ba611d84565b90506121c6828261217f565b919050565b600067ffffffffffffffff8211156121e6576121e5612150565b5b6121ef82611e99565b9050602081019050919050565b82818337600083830152505050565b600061221e612219846121cb565b6121b0565b90508281526020810184848401111561223a5761223961214b565b5b6122458482856121fc565b509392505050565b600082601f83011261226257612261612146565b5b813561227284826020860161220b565b91505092915050565b6000806000806080858703121561229557612294611d8e565b5b60006122a387828801611fdb565b94505060206122b487828801611fdb565b93505060406122c587828801611f26565b925050606085013567ffffffffffffffff8111156122e6576122e5611d93565b5b6122f28782880161224d565b91505092959194509250565b600067ffffffffffffffff82111561231957612318612150565b5b61232282611e99565b9050602081019050919050565b600061234261233d846122fe565b6121b0565b90508281526020810184848401111561235e5761235d61214b565b5b6123698482856121fc565b509392505050565b600082601f83011261238657612385612146565b5b813561239684826020860161232f565b91505092915050565b6000602082840312156123b5576123b4611d8e565b5b600082013567ffffffffffffffff8111156123d3576123d2611d93565b5b6123df84828501612371565b91505092915050565b600080604083850312156123ff576123fe611d8e565b5b600061240d85828601611fdb565b925050602061241e85828601611fdb565b9150509250929050565b7f4e487b7100000000000000000000000000000000000000000000000000000000600052602260045260246000fd5b6000600282049050600182168061246f57607f821691505b60208210810361248257612481612428565b5b50919050565b7f4552433732313a20617070726f76616c20746f2063757272656e74206f776e6560008201527f7200000000000000000000000000000000000000000000000000000000000000602082015250565b60006124e4602183611e5e565b91506124ef82612488565b604082019050919050565b60006020820190508181036000830152612513816124d7565b9050919050565b7f4552433732313a20617070726f76652063616c6c6572206973206e6f7420746f60008201527f6b656e206f776e6572206e6f7220617070726f76656420666f7220616c6c0000602082015250565b6000612576603e83611e5e565b91506125818261251a565b604082019050919050565b600060208201905081810360008301526125a581612569565b9050919050565b7f4552433732313a2063616c6c6572206973206e6f7420746f6b656e206f776e6560008201527f72206e6f7220617070726f766564000000000000000000000000000000000000602082015250565b6000612608602e83611e5e565b9150612613826125ac565b604082019050919050565b60006020820190508181036000830152612637816125fb565b9050919050565b7f455243373231456e756d657261626c653a206f776e657220696e646578206f7560008201527f74206f6620626f756e6473000000000000000000000000000000000000000000602082015250565b600061269a602b83611e5e565b91506126a58261263e565b604082019050919050565b600060208201905081810360008301526126c98161268d565b9050919050565b7f455243373231456e756d657261626c653a20676c6f62616c20696e646578206f60008201527f7574206f6620626f756e64730000000000000000000000000000000000000000602082015250565b600061272c602c83611e5e565b9150612737826126d0565b604082019050919050565b6000602082019050818103600083015261275b8161271f565b9050919050565b7f4e487b7100000000000000000000000000000000000000000000000000000000600052603260045260246000fd5b7f4552433732313a20696e76616c696420746f6b656e2049440000000000000000600082015250565b60006127c7601883611e5e565b91506127d282612791565b602082019050919050565b600060208201905081810360008301526127f6816127ba565b9050919050565b7f4552433732313a2061646472657373207a65726f206973206e6f74206120766160008201527f6c6964206f776e65720000000000000000000000000000000000000000000000602082015250565b6000612859602983611e5e565b9150612864826127fd565b604082019050919050565b600060208201905081810360008301526128888161284c565b9050919050565b600081905092915050565b60006128a582611e53565b6128af818561288f565b93506128bf818560208601611e6f565b80840191505092915050565b60006128d7828561289a565b91506128e3828461289a565b91508190509392505050565b60006128fb828461289a565b915081905092915050565b60008190508160005260206000209050919050565b60006020601f8301049050919050565b600082821b905092915050565b6000600883026129687fffffffffffffffffffffffffffffffffffffffffffffffffffffffffffffffff8261292b565b612972868361292b565b95508019841693508086168417925050509392505050565b6000819050919050565b60006129af6129aa6129a584611f05565b61298a565b611f05565b9050919050565b6000819050919050565b6129c983612994565b6129dd6129d5826129b6565b848454612938565b825550505050565b600090565b6129f26129e5565b6129fd8184846129c0565b505050565b5b81811015612a2157612a166000826129ea565b600181019050612a03565b5050565b601f821115612a6657612a3781612906565b612a408461291b565b81016020851015612a4f578190505b612a63612a5b8561291b565b830182612a02565b50505b505050565b600082821c905092915050565b6000612a8960001984600802612a6b565b1980831691505092915050565b6000612aa28383612a78565b9150826002028217905092915050565b612abb82611e53565b67ffffffffffffffff811115612ad457612ad3612150565b5b612ade8254612457565b612ae9828285612a25565b600060209050601f831160018114612b1c5760008415612b0a578287015190505b612b148582612a96565b865550612b7c565b601f198416612b2a86612906565b60005b82811015612b5257848901518255600182019150602085019450602081019050612b2d565b86831015612b6f5784890151612b6b601f891682612a78565b8355505b6001600288020188555050505b505050505050565b7f4e487b7100000000000000000000000000000000000000000000000000000000600052601160045260246000fd5b6000612bbe82611f05565b9150612bc983611f05565b9250828203905081811115612be157612be0612b84565b5b92915050565b7f4552433732313a207472616e736665722066726f6d20696e636f72726563742060008201527f6f776e6572000000000000000000000000000000000000000000000000000000602082015250565b6000612c43602583611e5e565b9150612c4e82612be7565b604082019050919050565b60006020820190508181036000830152612c7281612c36565b9050919050565b7f4552433732313a207472616e7366657220746f20746865207a65726f2061646460008201527f7265737300000000000000000000000000000000000000000000000000000000602082015250565b6000612cd5602483611e5e565b9150612ce082612c79565b604082019050919050565b60006020820190508181036000830152612d0481612cc8565b9050919050565b6000612d1682611f05565b9150612d2183611f05565b9250828201905080821115612d3957612d38612b84565b5b92915050565b7f4552433732313a20617070726f766520746f2063616c6c657200000000000000600082015250565b6000612d75601983611e5e565b9150612d8082612d3f565b602082019050919050565b60006020820190508181036000830152612da481612d68565b9050919050565b7f4552433732313a207472616e7366657220746f206e6f6e20455243373231526560008201527f63656976657220696d706c656d656e7465720000000000000000000000000000602082015250565b6000612e07603283611e5e565b9150612e1282612dab565b604082019050919050565b60006020820190508181036000830152612e3681612dfa565b9050919050565b6000612e4882611f05565b91507fffffffffffffffffffffffffffffffffffffffffffffffffffffffffffffffff8203612e7a57612e79612b84565b5b600182019050919050565b7f4e487b7100000000000000000000000000000000000000000000000000000000600052601260045260246000fd5b6000612ebf82611f05565b9150612eca83611f05565b925082612eda57612ed9612e85565b5b828204905092915050565b6000612ef082611f05565b9150612efb83611f05565b925082612f0b57612f0a612e85565b5b828206905092915050565b7f4552433732313a206d696e7420746f20746865207a65726f2061646472657373600082015250565b6000612f4c602083611e5e565b9150612f5782612f16565b602082019050919050565b60006020820190508181036000830152612f7b81612f3f565b9050919050565b7f4552433732313a20746f6b656e20616c7265616479206d696e74656400000000600082015250565b6000612fb8601c83611e5e565b9150612fc382612f82565b602082019050919050565b60006020820190508181036000830152612fe781612fab565b9050919050565b600081519050919050565b600082825260208201905092915050565b600061301582612fee565b61301f8185612ff9565b935061302f818560208601611e6f565b61303881611e99565b840191505092915050565b60006080820190506130586000830187611f9a565b6130656020830186611f9a565b6130726040830185612030565b8181036060830152613084818461300a565b905095945050505050565b60008151905061309e81611dc4565b92915050565b6000602082840312156130ba576130b9611d8e565b5b60006130c88482850161308f565b91505092915050565b7f4e487b7100000000000000000000000000000000000000000000000000000000600052603160045260246000fdfea26469706673582212207356651e6b8703c812f38c4a99cc5f46cd2598351762232fd9df155e5277740264736f6c63430008100033",
  "immutableReferences": {},
  "source": "// SPDX-License-Identifier: MIT\r\npragma solidity 0.8.16;\r\n\r\nimport \"@openzeppelin/contracts/token/ERC721/ERC721.sol\";\r\nimport \"@openzeppelin/contracts/token/ERC721/extensions/ERC721Enumerable.sol\";\r\n// import \"../node_modules/@openzeppelin/contracts/token/ERC721/ERC721.sol\"\r\ncontract CryptoCoders is ERC721, ERC721Enumerable{\r\n\r\n    string[] public coders;\r\n\r\n    mapping(string => bool) _coderExists;\r\n\r\n    constructor() ERC721(\"CryptoCoders\",\"CSS\"){}\r\n\r\n    function mint(string memory coder) public{\r\n        require(_coderExists[coder] != true); // making sure coder does not exist already\r\n        coders.push(coder);  //pushing new coder's name\r\n        uint _id = coders.length - 1;\r\n        _mint(msg.sender, _id);\r\n        _coderExists[coder] = true; // making this so we can know who already exist\r\n\r\n    }\r\n\r\n    function _beforeTokenTransfer(address from, address to, uint256 tokenId) internal override(ERC721, ERC721Enumerable){\r\n            super._beforeTokenTransfer(from, to, tokenId);\r\n    }\r\n    // we made these functions because ERC721Enumerable was giving error \r\n    // becuase both external contracts has same name of function\r\n    // which was making a override error\r\n    function supportsInterface(bytes4 interfaceId) public view override(ERC721,ERC721Enumerable) returns(bool){\r\n        return super.supportsInterface(interfaceId);\r\n    }\r\n\r\n\r\n}\r\n",
  "sourcePath": "F:\\Minting Website\\contracts\\CryptoCoders.sol",
  "compiler": {
    "name": "solc",
    "version": "0.8.16+commit.07a7930e.Emscripten.clang"
  },
  "schemaVersion": "3.4.9",
  "updatedAt": "2022-09-05T08:43:56.886Z",
  "devdoc": {
    "kind": "dev",
    "methods": {
      "approve(address,uint256)": {
        "details": "See {IERC721-approve}."
      },
      "balanceOf(address)": {
        "details": "See {IERC721-balanceOf}."
      },
      "getApproved(uint256)": {
        "details": "See {IERC721-getApproved}."
      },
      "isApprovedForAll(address,address)": {
        "details": "See {IERC721-isApprovedForAll}."
      },
      "name()": {
        "details": "See {IERC721Metadata-name}."
      },
      "ownerOf(uint256)": {
        "details": "See {IERC721-ownerOf}."
      },
      "safeTransferFrom(address,address,uint256)": {
        "details": "See {IERC721-safeTransferFrom}."
      },
      "safeTransferFrom(address,address,uint256,bytes)": {
        "details": "See {IERC721-safeTransferFrom}."
      },
      "setApprovalForAll(address,bool)": {
        "details": "See {IERC721-setApprovalForAll}."
      },
      "symbol()": {
        "details": "See {IERC721Metadata-symbol}."
      },
      "tokenByIndex(uint256)": {
        "details": "See {IERC721Enumerable-tokenByIndex}."
      },
      "tokenOfOwnerByIndex(address,uint256)": {
        "details": "See {IERC721Enumerable-tokenOfOwnerByIndex}."
      },
      "tokenURI(uint256)": {
        "details": "See {IERC721Metadata-tokenURI}."
      },
      "totalSupply()": {
        "details": "See {IERC721Enumerable-totalSupply}."
      },
      "transferFrom(address,address,uint256)": {
        "details": "See {IERC721-transferFrom}."
      }
    },
    "version": 1
  },
  "userdoc": {
    "kind": "user",
    "methods": {},
    "version": 1
  }
}