{
  "contractName": "CryptoCoders",
  "abi": [
    {
      "inputs": [],
      "stateMutability": "nonpayable",
      "type": "constructor"
    },
    {
      "anonymous": false,
      "inputs": [
        {
          "indexed": true,
          "internalType": "address",
          "name": "owner",
          "type": "address"
        },
        {
          "indexed": true,
          "internalType": "address",
          "name": "approved",
          "type": "address"
        },
        {
          "indexed": true,
          "internalType": "uint256",
          "name": "tokenId",
          "type": "uint256"
        }
      ],
      "name": "Approval",
      "type": "event"
    },
    {
      "anonymous": false,
      "inputs": [
        {
          "indexed": true,
          "internalType": "address",
          "name": "owner",
          "type": "address"
        },
        {
          "indexed": true,
          "internalType": "address",
          "name": "operator",
          "type": "address"
        },
        {
          "indexed": false,
          "internalType": "bool",
          "name": "approved",
          "type": "bool"
        }
      ],
      "name": "ApprovalForAll",
      "type": "event"
    },
    {
      "anonymous": false,
      "inputs": [
        {
          "indexed": true,
          "internalType": "address",
          "name": "from",
          "type": "address"
        },
        {
          "indexed": true,
          "internalType": "address",
          "name": "to",
          "type": "address"
        },
        {
          "indexed": true,
          "internalType": "uint256",
          "name": "tokenId",
          "type": "uint256"
        }
      ],
      "name": "Transfer",
      "type": "event"
    },
    {
      "inputs": [
        {
          "internalType": "address",
          "name": "to",
          "type": "address"
        },
        {
          "internalType": "uint256",
          "name": "tokenId",
          "type": "uint256"
        }
      ],
      "name": "approve",
      "outputs": [],
      "stateMutability": "nonpayable",
      "type": "function"
    },
    {
      "inputs": [
        {
          "internalType": "address",
          "name": "owner",
          "type": "address"
        }
      ],
      "name": "balanceOf",
      "outputs": [
        {
          "internalType": "uint256",
          "name": "",
          "type": "uint256"
        }
      ],
      "stateMutability": "view",
      "type": "function"
    },
    {
      "inputs": [
        {
          "internalType": "uint256",
          "name": "",
          "type": "uint256"
        }
      ],
      "name": "coders",
      "outputs": [
        {
          "internalType": "string",
          "name": "",
          "type": "string"
        }
      ],
      "stateMutability": "view",
      "type": "function"
    },
    {
      "inputs": [
        {
          "internalType": "uint256",
          "name": "tokenId",
          "type": "uint256"
        }
      ],
      "name": "getApproved",
      "outputs": [
        {
          "internalType": "address",
          "name": "",
          "type": "address"
        }
      ],
      "stateMutability": "view",
      "type": "function"
    },
    {
      "inputs": [
        {
          "internalType": "address",
          "name": "owner",
          "type": "address"
        },
        {
          "internalType": "address",
          "name": "operator",
          "type": "address"
        }
      ],
      "name": "isApprovedForAll",
      "outputs": [
        {
          "internalType": "bool",
          "name": "",
          "type": "bool"
        }
      ],
      "stateMutability": "view",
      "type": "function"
    },
    {
      "inputs": [],
      "name": "name",
      "outputs": [
        {
          "internalType": "string",
          "name": "",
          "type": "string"
        }
      ],
      "stateMutability": "view",
      "type": "function"
    },
    {
      "inputs": [
        {
          "internalType": "uint256",
          "name": "tokenId",
          "type": "uint256"
        }
      ],
      "name": "ownerOf",
      "outputs": [
        {
          "internalType": "address",
          "name": "",
          "type": "address"
        }
      ],
      "stateMutability": "view",
      "type": "function"
    },
    {
      "inputs": [
        {
          "internalType": "address",
          "name": "from",
          "type": "address"
        },
        {
          "internalType": "address",
          "name": "to",
          "type": "address"
        },
        {
          "internalType": "uint256",
          "name": "tokenId",
          "type": "uint256"
        }
      ],
      "name": "safeTransferFrom",
      "outputs": [],
      "stateMutability": "nonpayable",
      "type": "function"
    },
    {
      "inputs": [
        {
          "internalType": "address",
          "name": "from",
          "type": "address"
        },
        {
          "internalType": "address",
          "name": "to",
          "type": "address"
        },
        {
          "internalType": "uint256",
          "name": "tokenId",
          "type": "uint256"
        },
        {
          "internalType": "bytes",
          "name": "data",
          "type": "bytes"
        }
      ],
      "name": "safeTransferFrom",
      "outputs": [],
      "stateMutability": "nonpayable",
      "type": "function"
    },
    {
      "inputs": [
        {
          "internalType": "address",
          "name": "operator",
          "type": "address"
        },
        {
          "internalType": "bool",
          "name": "approved",
          "type": "bool"
        }
      ],
      "name": "setApprovalForAll",
      "outputs": [],
      "stateMutability": "nonpayable",
      "type": "function"
    },
    {
      "inputs": [],
      "name": "symbol",
      "outputs": [
        {
          "internalType": "string",
          "name": "",
          "type": "string"
        }
      ],
      "stateMutability": "view",
      "type": "function"
    },
    {
      "inputs": [
        {
          "internalType": "uint256",
          "name": "index",
          "type": "uint256"
        }
      ],
      "name": "tokenByIndex",
      "outputs": [
        {
          "internalType": "uint256",
          "name": "",
          "type": "uint256"
        }
      ],
      "stateMutability": "view",
      "type": "function"
    },
    {
      "inputs": [
        {
          "internalType": "address",
          "name": "owner",
          "type": "address"
        },
        {
          "internalType": "uint256",
          "name": "index",
          "type": "uint256"
        }
      ],
      "name": "tokenOfOwnerByIndex",
      "outputs": [
        {
          "internalType": "uint256",
          "name": "",
          "type": "uint256"
        }
      ],
      "stateMutability": "view",
      "type": "function"
    },
    {
      "inputs": [
        {
          "internalType": "uint256",
          "name": "tokenId",
          "type": "uint256"
        }
      ],
      "name": "tokenURI",
      "outputs": [
        {
          "internalType": "string",
          "name": "",
          "type": "string"
        }
      ],
      "stateMutability": "view",
      "type": "function"
    },
    {
      "inputs": [],
      "name": "totalSupply",
      "outputs": [
        {
          "internalType": "uint256",
          "name": "",
          "type": "uint256"
        }
      ],
      "stateMutability": "view",
      "type": "function"
    },
    {
      "inputs": [
        {
          "internalType": "address",
          "name": "from",
          "type": "address"
        },
        {
          "internalType": "address",
          "name": "to",
          "type": "address"
        },
        {
          "internalType": "uint256",
          "name": "tokenId",
          "type": "uint256"
        }
      ],
      "name": "transferFrom",
      "outputs": [],
      "stateMutability": "nonpayable",
      "type": "function"
    },
    {
      "inputs": [
        {
          "internalType": "string",
          "name": "coder",
          "type": "string"
        }
      ],
      "name": "mint",
      "outputs": [],
      "stateMutability": "nonpayable",
      "type": "function"
    },
    {
      "inputs": [
        {
          "internalType": "bytes4",
          "name": "interfaceId",
          "type": "bytes4"
        }
      ],
      "name": "supportsInterface",
      "outputs": [
        {
          "internalType": "bool",
          "name": "",
          "type": "bool"
        }
      ],
      "stateMutability": "view",
      "type": "function"
    }
  ],
  "bytecode": "0x60806040523480156200001157600080fd5b506040518060400160405280600c81526020017f43727970746f436f6465727300000000000000000000000000000000000000008152506040518060400160405280600381526020017f4353530000000000000000000000000000000000000000000000000000000000815250816000908051906020019062000096929190620000b8565b508060019080519060200190620000af929190620000b8565b505050620001cd565b828054620000c69062000197565b90600052602060002090601f016020900481019282620000ea576000855562000136565b82601f106200010557805160ff191683800117855562000136565b8280016001018555821562000136579182015b828111156200013557825182559160200191906001019062000118565b5b50905062000145919062000149565b5090565b5b80821115620001645760008160009055506001016200014a565b5090565b7f4e487b7100000000000000000000000000000000000000000000000000000000600052602260045260246000fd5b60006002820490506001821680620001b057607f821691505b60208210811415620001c757620001c662000168565b5b50919050565b612f9a80620001dd6000396000f3fe608060405234801561001057600080fd5b50600436106101165760003560e01c80634f6ccce7116100a2578063a22cb46511610071578063a22cb46514610319578063b88d4fde14610335578063c87b56dd14610351578063d85d3d2714610381578063e985e9c51461039d57610116565b80634f6ccce71461026b5780636352211e1461029b57806370a08231146102cb57806395d89b41146102fb57610116565b806318160ddd116100e957806318160ddd146101b557806323b872dd146101d35780632f745c59146101ef57806342842e0e1461021f5780634cfa16f91461023b57610116565b806301ffc9a71461011b57806306fdde031461014b578063081812fc14610169578063095ea7b314610199575b600080fd5b61013560048036038101906101309190611ea5565b6103cd565b6040516101429190611eed565b60405180910390f35b6101536103df565b6040516101609190611fa1565b60405180910390f35b610183600480360381019061017e9190611ff9565b610471565b6040516101909190612067565b60405180910390f35b6101b360048036038101906101ae91906120ae565b6104b7565b005b6101bd6105cf565b6040516101ca91906120fd565b60405180910390f35b6101ed60048036038101906101e89190612118565b6105dc565b005b610209600480360381019061020491906120ae565b61063c565b60405161021691906120fd565b60405180910390f35b61023960048036038101906102349190612118565b6106e1565b005b61025560048036038101906102509190611ff9565b610701565b6040516102629190611fa1565b60405180910390f35b61028560048036038101906102809190611ff9565b6107ad565b60405161029291906120fd565b60405180910390f35b6102b560048036038101906102b09190611ff9565b61081e565b6040516102c29190612067565b60405180910390f35b6102e560048036038101906102e0919061216b565b6108d0565b6040516102f291906120fd565b60405180910390f35b610303610988565b6040516103109190611fa1565b60405180910390f35b610333600480360381019061032e91906121c4565b610a1a565b005b61034f600480360381019061034a9190612339565b610a30565b005b61036b60048036038101906103669190611ff9565b610a92565b6040516103789190611fa1565b60405180910390f35b61039b6004803603810190610396919061245d565b610afa565b005b6103b760048036038101906103b291906124a6565b610bce565b6040516103c49190611eed565b60405180910390f35b60006103d882610c62565b9050919050565b6060600080546103ee90612515565b80601f016020809104026020016040519081016040528092919081815260200182805461041a90612515565b80156104675780601f1061043c57610100808354040283529160200191610467565b820191906000526020600020905b81548152906001019060200180831161044a57829003601f168201915b5050505050905090565b600061047c82610cdc565b6004600083815260200190815260200160002060009054906101000a900473ffffffffffffffffffffffffffffffffffffffff169050919050565b60006104c28261081e565b90508073ffffffffffffffffffffffffffffffffffffffff168373ffffffffffffffffffffffffffffffffffffffff161415610533576040517f08c379a000000000000000000000000000000000000000000000000000000000815260040161052a906125b9565b60405180910390fd5b8073ffffffffffffffffffffffffffffffffffffffff16610552610d27565b73ffffffffffffffffffffffffffffffffffffffff16148061058157506105808161057b610d27565b610bce565b5b6105c0576040517f08c379a00000000000000000000000000000000000000000000000000000000081526004016105b79061264b565b60405180910390fd5b6105ca8383610d2f565b505050565b6000600880549050905090565b6105ed6105e7610d27565b82610de8565b61062c576040517f08c379a0000000000000000000000000000000000000000000000000000000008152600401610623906126dd565b60405180910390fd5b610637838383610e7d565b505050565b6000610647836108d0565b8210610688576040517f08c379a000000000000000000000000000000000000000000000000000000000815260040161067f9061276f565b60405180910390fd5b600660008473ffffffffffffffffffffffffffffffffffffffff1673ffffffffffffffffffffffffffffffffffffffff168152602001908152602001600020600083815260200190815260200160002054905092915050565b6106fc83838360405180602001604052806000815250610a30565b505050565b600a818154811061071157600080fd5b90600052602060002001600091509050805461072c90612515565b80601f016020809104026020016040519081016040528092919081815260200182805461075890612515565b80156107a55780601f1061077a576101008083540402835291602001916107a5565b820191906000526020600020905b81548152906001019060200180831161078857829003601f168201915b505050505081565b60006107b76105cf565b82106107f8576040517f08c379a00000000000000000000000000000000000000000000000000000000081526004016107ef90612801565b60405180910390fd5b6008828154811061080c5761080b612821565b5b90600052602060002001549050919050565b6000806002600084815260200190815260200160002060009054906101000a900473ffffffffffffffffffffffffffffffffffffffff169050600073ffffffffffffffffffffffffffffffffffffffff168173ffffffffffffffffffffffffffffffffffffffff1614156108c7576040517f08c379a00000000000000000000000000000000000000000000000000000000081526004016108be9061289c565b60405180910390fd5b80915050919050565b60008073ffffffffffffffffffffffffffffffffffffffff168273ffffffffffffffffffffffffffffffffffffffff161415610941576040517f08c379a00000000000000000000000000000000000000000000000000000000081526004016109389061292e565b60405180910390fd5b600360008373ffffffffffffffffffffffffffffffffffffffff1673ffffffffffffffffffffffffffffffffffffffff168152602001908152602001600020549050919050565b60606001805461099790612515565b80601f01602080910402602001604051908101604052809291908181526020018280546109c390612515565b8015610a105780601f106109e557610100808354040283529160200191610a10565b820191906000526020600020905b8154815290600101906020018083116109f357829003601f168201915b5050505050905090565b610a2c610a25610d27565b83836110e4565b5050565b610a41610a3b610d27565b83610de8565b610a80576040517f08c379a0000000000000000000000000000000000000000000000000000000008152600401610a77906126dd565b60405180910390fd5b610a8c84848484611251565b50505050565b6060610a9d82610cdc565b6000610aa76112ad565b90506000815111610ac75760405180602001604052806000815250610af2565b80610ad1846112c4565b604051602001610ae292919061298a565b6040516020818303038152906040525b915050919050565b60011515600b82604051610b0e91906129ae565b908152602001604051809103902060009054906101000a900460ff1615151415610b3757600080fd5b600a81908060018154018082558091505060019003906000526020600020016000909190919091509080519060200190610b72929190611d96565b5060006001600a80549050610b8791906129f4565b9050610b933382611425565b6001600b83604051610ba591906129ae565b908152602001604051809103902060006101000a81548160ff0219169083151502179055505050565b6000600560008473ffffffffffffffffffffffffffffffffffffffff1673ffffffffffffffffffffffffffffffffffffffff16815260200190815260200160002060008373ffffffffffffffffffffffffffffffffffffffff1673ffffffffffffffffffffffffffffffffffffffff16815260200190815260200160002060009054906101000a900460ff16905092915050565b60007f780e9d63000000000000000000000000000000000000000000000000000000007bffffffffffffffffffffffffffffffffffffffffffffffffffffffff1916827bffffffffffffffffffffffffffffffffffffffffffffffffffffffff19161480610cd55750610cd4826115ff565b5b9050919050565b610ce5816116e1565b610d24576040517f08c379a0000000000000000000000000000000000000000000000000000000008152600401610d1b9061289c565b60405180910390fd5b50565b600033905090565b816004600083815260200190815260200160002060006101000a81548173ffffffffffffffffffffffffffffffffffffffff021916908373ffffffffffffffffffffffffffffffffffffffff160217905550808273ffffffffffffffffffffffffffffffffffffffff16610da28361081e565b73ffffffffffffffffffffffffffffffffffffffff167f8c5be1e5ebec7d5bd14f71427d1e84f3dd0314c0f7b2291e5b200ac8c7c3b92560405160405180910390a45050565b600080610df48361081e565b90508073ffffffffffffffffffffffffffffffffffffffff168473ffffffffffffffffffffffffffffffffffffffff161480610e365750610e358185610bce565b5b80610e7457508373ffffffffffffffffffffffffffffffffffffffff16610e5c84610471565b73ffffffffffffffffffffffffffffffffffffffff16145b91505092915050565b8273ffffffffffffffffffffffffffffffffffffffff16610e9d8261081e565b73ffffffffffffffffffffffffffffffffffffffff1614610ef3576040517f08c379a0000000000000000000000000000000000000000000000000000000008152600401610eea90612a9a565b60405180910390fd5b600073ffffffffffffffffffffffffffffffffffffffff168273ffffffffffffffffffffffffffffffffffffffff161415610f63576040517f08c379a0000000000000000000000000000000000000000000000000000000008152600401610f5a90612b2c565b60405180910390fd5b610f6e83838361174d565b610f79600082610d2f565b6001600360008573ffffffffffffffffffffffffffffffffffffffff1673ffffffffffffffffffffffffffffffffffffffff1681526020019081526020016000206000828254610fc991906129f4565b925050819055506001600360008473ffffffffffffffffffffffffffffffffffffffff1673ffffffffffffffffffffffffffffffffffffffff16815260200190815260200160002060008282546110209190612b4c565b92505081905550816002600083815260200190815260200160002060006101000a81548173ffffffffffffffffffffffffffffffffffffffff021916908373ffffffffffffffffffffffffffffffffffffffff160217905550808273ffffffffffffffffffffffffffffffffffffffff168473ffffffffffffffffffffffffffffffffffffffff167fddf252ad1be2c89b69c2b068fc378daa952ba7f163c4a11628f55a4df523b3ef60405160405180910390a46110df83838361175d565b505050565b8173ffffffffffffffffffffffffffffffffffffffff168373ffffffffffffffffffffffffffffffffffffffff161415611153576040517f08c379a000000000000000000000000000000000000000000000000000000000815260040161114a90612bee565b60405180910390fd5b80600560008573ffffffffffffffffffffffffffffffffffffffff1673ffffffffffffffffffffffffffffffffffffffff16815260200190815260200160002060008473ffffffffffffffffffffffffffffffffffffffff1673ffffffffffffffffffffffffffffffffffffffff16815260200190815260200160002060006101000a81548160ff0219169083151502179055508173ffffffffffffffffffffffffffffffffffffffff168373ffffffffffffffffffffffffffffffffffffffff167f17307eab39ab6107e8899845ad3d59bd9653f200f220920489ca2b5937696c31836040516112449190611eed565b60405180910390a3505050565b61125c848484610e7d565b61126884848484611762565b6112a7576040517f08c379a000000000000000000000000000000000000000000000000000000000815260040161129e90612c80565b60405180910390fd5b50505050565b606060405180602001604052806000815250905090565b6060600082141561130c576040518060400160405280600181526020017f30000000000000000000000000000000000000000000000000000000000000008152509050611420565b600082905060005b6000821461133e57808061132790612ca0565b915050600a826113379190612d18565b9150611314565b60008167ffffffffffffffff81111561135a5761135961220e565b5b6040519080825280601f01601f19166020018201604052801561138c5781602001600182028036833780820191505090505b5090505b60008514611419576001826113a591906129f4565b9150600a856113b49190612d49565b60306113c09190612b4c565b60f81b8183815181106113d6576113d5612821565b5b60200101907effffffffffffffffffffffffffffffffffffffffffffffffffffffffffffff1916908160001a905350600a856114129190612d18565b9450611390565b8093505050505b919050565b600073ffffffffffffffffffffffffffffffffffffffff168273ffffffffffffffffffffffffffffffffffffffff161415611495576040517f08c379a000000000000000000000000000000000000000000000000000000000815260040161148c90612dc6565b60405180910390fd5b61149e816116e1565b156114de576040517f08c379a00000000000000000000000000000000000000000000000000000000081526004016114d590612e32565b60405180910390fd5b6114ea6000838361174d565b6001600360008473ffffffffffffffffffffffffffffffffffffffff1673ffffffffffffffffffffffffffffffffffffffff168152602001908152602001600020600082825461153a9190612b4c565b92505081905550816002600083815260200190815260200160002060006101000a81548173ffffffffffffffffffffffffffffffffffffffff021916908373ffffffffffffffffffffffffffffffffffffffff160217905550808273ffffffffffffffffffffffffffffffffffffffff16600073ffffffffffffffffffffffffffffffffffffffff167fddf252ad1be2c89b69c2b068fc378daa952ba7f163c4a11628f55a4df523b3ef60405160405180910390a46115fb6000838361175d565b5050565b60007f80ac58cd000000000000000000000000000000000000000000000000000000007bffffffffffffffffffffffffffffffffffffffffffffffffffffffff1916827bffffffffffffffffffffffffffffffffffffffffffffffffffffffff191614806116ca57507f5b5e139f000000000000000000000000000000000000000000000000000000007bffffffffffffffffffffffffffffffffffffffffffffffffffffffff1916827bffffffffffffffffffffffffffffffffffffffffffffffffffffffff1916145b806116da57506116d9826118ea565b5b9050919050565b60008073ffffffffffffffffffffffffffffffffffffffff166002600084815260200190815260200160002060009054906101000a900473ffffffffffffffffffffffffffffffffffffffff1673ffffffffffffffffffffffffffffffffffffffff1614159050919050565b611758838383611954565b505050565b505050565b60006117838473ffffffffffffffffffffffffffffffffffffffff16611a68565b156118dd578373ffffffffffffffffffffffffffffffffffffffff1663150b7a026117ac610d27565b8786866040518563ffffffff1660e01b81526004016117ce9493929190612ea7565b6020604051808303816000875af192505050801561180a57506040513d601f19601f820116820180604052508101906118079190612f08565b60015b61188d573d806000811461183a576040519150601f19603f3d011682016040523d82523d6000602084013e61183f565b606091505b50600081511415611885576040517f08c379a000000000000000000000000000000000000000000000000000000000815260040161187c90612c80565b60405180910390fd5b805181602001fd5b63150b7a0260e01b7bffffffffffffffffffffffffffffffffffffffffffffffffffffffff1916817bffffffffffffffffffffffffffffffffffffffffffffffffffffffff1916149150506118e2565b600190505b949350505050565b60007f01ffc9a7000000000000000000000000000000000000000000000000000000007bffffffffffffffffffffffffffffffffffffffffffffffffffffffff1916827bffffffffffffffffffffffffffffffffffffffffffffffffffffffff1916149050919050565b61195f838383611a8b565b600073ffffffffffffffffffffffffffffffffffffffff168373ffffffffffffffffffffffffffffffffffffffff1614156119a25761199d81611a90565b6119e1565b8173ffffffffffffffffffffffffffffffffffffffff168373ffffffffffffffffffffffffffffffffffffffff16146119e0576119df8382611ad9565b5b5b600073ffffffffffffffffffffffffffffffffffffffff168273ffffffffffffffffffffffffffffffffffffffff161415611a2457611a1f81611c46565b611a63565b8273ffffffffffffffffffffffffffffffffffffffff168273ffffffffffffffffffffffffffffffffffffffff1614611a6257611a618282611d17565b5b5b505050565b6000808273ffffffffffffffffffffffffffffffffffffffff163b119050919050565b505050565b6008805490506009600083815260200190815260200160002081905550600881908060018154018082558091505060019003906000526020600020016000909190919091505550565b60006001611ae6846108d0565b611af091906129f4565b9050600060076000848152602001908152602001600020549050818114611bd5576000600660008673ffffffffffffffffffffffffffffffffffffffff1673ffffffffffffffffffffffffffffffffffffffff168152602001908152602001600020600084815260200190815260200160002054905080600660008773ffffffffffffffffffffffffffffffffffffffff1673ffffffffffffffffffffffffffffffffffffffff168152602001908152602001600020600084815260200190815260200160002081905550816007600083815260200190815260200160002081905550505b6007600084815260200190815260200160002060009055600660008573ffffffffffffffffffffffffffffffffffffffff1673ffffffffffffffffffffffffffffffffffffffff16815260200190815260200160002060008381526020019081526020016000206000905550505050565b60006001600880549050611c5a91906129f4565b9050600060096000848152602001908152602001600020549050600060088381548110611c8a57611c89612821565b5b906000526020600020015490508060088381548110611cac57611cab612821565b5b906000526020600020018190555081600960008381526020019081526020016000208190555060096000858152602001908152602001600020600090556008805480611cfb57611cfa612f35565b5b6001900381819060005260206000200160009055905550505050565b6000611d22836108d0565b905081600660008573ffffffffffffffffffffffffffffffffffffffff1673ffffffffffffffffffffffffffffffffffffffff168152602001908152602001600020600083815260200190815260200160002081905550806007600084815260200190815260200160002081905550505050565b828054611da290612515565b90600052602060002090601f016020900481019282611dc45760008555611e0b565b82601f10611ddd57805160ff1916838001178555611e0b565b82800160010185558215611e0b579182015b82811115611e0a578251825591602001919060010190611def565b5b509050611e189190611e1c565b5090565b5b80821115611e35576000816000905550600101611e1d565b5090565b6000604051905090565b600080fd5b600080fd5b60007fffffffff0000000000000000000000000000000000000000000000000000000082169050919050565b611e8281611e4d565b8114611e8d57600080fd5b50565b600081359050611e9f81611e79565b92915050565b600060208284031215611ebb57611eba611e43565b5b6000611ec984828501611e90565b91505092915050565b60008115159050919050565b611ee781611ed2565b82525050565b6000602082019050611f026000830184611ede565b92915050565b600081519050919050565b600082825260208201905092915050565b60005b83811015611f42578082015181840152602081019050611f27565b83811115611f51576000848401525b50505050565b6000601f19601f8301169050919050565b6000611f7382611f08565b611f7d8185611f13565b9350611f8d818560208601611f24565b611f9681611f57565b840191505092915050565b60006020820190508181036000830152611fbb8184611f68565b905092915050565b6000819050919050565b611fd681611fc3565b8114611fe157600080fd5b50565b600081359050611ff381611fcd565b92915050565b60006020828403121561200f5761200e611e43565b5b600061201d84828501611fe4565b91505092915050565b600073ffffffffffffffffffffffffffffffffffffffff82169050919050565b600061205182612026565b9050919050565b61206181612046565b82525050565b600060208201905061207c6000830184612058565b92915050565b61208b81612046565b811461209657600080fd5b50565b6000813590506120a881612082565b92915050565b600080604083850312156120c5576120c4611e43565b5b60006120d385828601612099565b92505060206120e485828601611fe4565b9150509250929050565b6120f781611fc3565b82525050565b600060208201905061211260008301846120ee565b92915050565b60008060006060848603121561213157612130611e43565b5b600061213f86828701612099565b935050602061215086828701612099565b925050604061216186828701611fe4565b9150509250925092565b60006020828403121561218157612180611e43565b5b600061218f84828501612099565b91505092915050565b6121a181611ed2565b81146121ac57600080fd5b50565b6000813590506121be81612198565b92915050565b600080604083850312156121db576121da611e43565b5b60006121e985828601612099565b92505060206121fa858286016121af565b9150509250929050565b600080fd5b600080fd5b7f4e487b7100000000000000000000000000000000000000000000000000000000600052604160045260246000fd5b61224682611f57565b810181811067ffffffffffffffff821117156122655761226461220e565b5b80604052505050565b6000612278611e39565b9050612284828261223d565b919050565b600067ffffffffffffffff8211156122a4576122a361220e565b5b6122ad82611f57565b9050602081019050919050565b82818337600083830152505050565b60006122dc6122d784612289565b61226e565b9050828152602081018484840111156122f8576122f7612209565b5b6123038482856122ba565b509392505050565b600082601f8301126123205761231f612204565b5b81356123308482602086016122c9565b91505092915050565b6000806000806080858703121561235357612352611e43565b5b600061236187828801612099565b945050602061237287828801612099565b935050604061238387828801611fe4565b925050606085013567ffffffffffffffff8111156123a4576123a3611e48565b5b6123b08782880161230b565b91505092959194509250565b600067ffffffffffffffff8211156123d7576123d661220e565b5b6123e082611f57565b9050602081019050919050565b60006124006123fb846123bc565b61226e565b90508281526020810184848401111561241c5761241b612209565b5b6124278482856122ba565b509392505050565b600082601f83011261244457612443612204565b5b81356124548482602086016123ed565b91505092915050565b60006020828403121561247357612472611e43565b5b600082013567ffffffffffffffff81111561249157612490611e48565b5b61249d8482850161242f565b91505092915050565b600080604083850312156124bd576124bc611e43565b5b60006124cb85828601612099565b92505060206124dc85828601612099565b9150509250929050565b7f4e487b7100000000000000000000000000000000000000000000000000000000600052602260045260246000fd5b6000600282049050600182168061252d57607f821691505b60208210811415612541576125406124e6565b5b50919050565b7f4552433732313a20617070726f76616c20746f2063757272656e74206f776e6560008201527f7200000000000000000000000000000000000000000000000000000000000000602082015250565b60006125a3602183611f13565b91506125ae82612547565b604082019050919050565b600060208201905081810360008301526125d281612596565b9050919050565b7f4552433732313a20617070726f76652063616c6c6572206973206e6f7420746f60008201527f6b656e206f776e6572206e6f7220617070726f76656420666f7220616c6c0000602082015250565b6000612635603e83611f13565b9150612640826125d9565b604082019050919050565b6000602082019050818103600083015261266481612628565b9050919050565b7f4552433732313a2063616c6c6572206973206e6f7420746f6b656e206f776e6560008201527f72206e6f7220617070726f766564000000000000000000000000000000000000602082015250565b60006126c7602e83611f13565b91506126d28261266b565b604082019050919050565b600060208201905081810360008301526126f6816126ba565b9050919050565b7f455243373231456e756d657261626c653a206f776e657220696e646578206f7560008201527f74206f6620626f756e6473000000000000000000000000000000000000000000602082015250565b6000612759602b83611f13565b9150612764826126fd565b604082019050919050565b600060208201905081810360008301526127888161274c565b9050919050565b7f455243373231456e756d657261626c653a20676c6f62616c20696e646578206f60008201527f7574206f6620626f756e64730000000000000000000000000000000000000000602082015250565b60006127eb602c83611f13565b91506127f68261278f565b604082019050919050565b6000602082019050818103600083015261281a816127de565b9050919050565b7f4e487b7100000000000000000000000000000000000000000000000000000000600052603260045260246000fd5b7f4552433732313a20696e76616c696420746f6b656e2049440000000000000000600082015250565b6000612886601883611f13565b915061289182612850565b602082019050919050565b600060208201905081810360008301526128b581612879565b9050919050565b7f4552433732313a2061646472657373207a65726f206973206e6f74206120766160008201527f6c6964206f776e65720000000000000000000000000000000000000000000000602082015250565b6000612918602983611f13565b9150612923826128bc565b604082019050919050565b600060208201905081810360008301526129478161290b565b9050919050565b600081905092915050565b600061296482611f08565b61296e818561294e565b935061297e818560208601611f24565b80840191505092915050565b60006129968285612959565b91506129a28284612959565b91508190509392505050565b60006129ba8284612959565b915081905092915050565b7f4e487b7100000000000000000000000000000000000000000000000000000000600052601160045260246000fd5b60006129ff82611fc3565b9150612a0a83611fc3565b925082821015612a1d57612a1c6129c5565b5b828203905092915050565b7f4552433732313a207472616e736665722066726f6d20696e636f72726563742060008201527f6f776e6572000000000000000000000000000000000000000000000000000000602082015250565b6000612a84602583611f13565b9150612a8f82612a28565b604082019050919050565b60006020820190508181036000830152612ab381612a77565b9050919050565b7f4552433732313a207472616e7366657220746f20746865207a65726f2061646460008201527f7265737300000000000000000000000000000000000000000000000000000000602082015250565b6000612b16602483611f13565b9150612b2182612aba565b604082019050919050565b60006020820190508181036000830152612b4581612b09565b9050919050565b6000612b5782611fc3565b9150612b6283611fc3565b9250827fffffffffffffffffffffffffffffffffffffffffffffffffffffffffffffffff03821115612b9757612b966129c5565b5b828201905092915050565b7f4552433732313a20617070726f766520746f2063616c6c657200000000000000600082015250565b6000612bd8601983611f13565b9150612be382612ba2565b602082019050919050565b60006020820190508181036000830152612c0781612bcb565b9050919050565b7f4552433732313a207472616e7366657220746f206e6f6e20455243373231526560008201527f63656976657220696d706c656d656e7465720000000000000000000000000000602082015250565b6000612c6a603283611f13565b9150612c7582612c0e565b604082019050919050565b60006020820190508181036000830152612c9981612c5d565b9050919050565b6000612cab82611fc3565b91507fffffffffffffffffffffffffffffffffffffffffffffffffffffffffffffffff821415612cde57612cdd6129c5565b5b600182019050919050565b7f4e487b7100000000000000000000000000000000000000000000000000000000600052601260045260246000fd5b6000612d2382611fc3565b9150612d2e83611fc3565b925082612d3e57612d3d612ce9565b5b828204905092915050565b6000612d5482611fc3565b9150612d5f83611fc3565b925082612d6f57612d6e612ce9565b5b828206905092915050565b7f4552433732313a206d696e7420746f20746865207a65726f2061646472657373600082015250565b6000612db0602083611f13565b9150612dbb82612d7a565b602082019050919050565b60006020820190508181036000830152612ddf81612da3565b9050919050565b7f4552433732313a20746f6b656e20616c7265616479206d696e74656400000000600082015250565b6000612e1c601c83611f13565b9150612e2782612de6565b602082019050919050565b60006020820190508181036000830152612e4b81612e0f565b9050919050565b600081519050919050565b600082825260208201905092915050565b6000612e7982612e52565b612e838185612e5d565b9350612e93818560208601611f24565b612e9c81611f57565b840191505092915050565b6000608082019050612ebc6000830187612058565b612ec96020830186612058565b612ed660408301856120ee565b8181036060830152612ee88184612e6e565b905095945050505050565b600081519050612f0281611e79565b92915050565b600060208284031215612f1e57612f1d611e43565b5b6000612f2c84828501612ef3565b91505092915050565b7f4e487b7100000000000000000000000000000000000000000000000000000000600052603160045260246000fdfea2646970667358221220b99fa9d203093e3bcb288f7622f7a854cbf94a5477e85b244781ae2dad8a223564736f6c634300080b0033",
  "immutableReferences": {},
  "source": "pragma solidity ^0.8.0;\r\n\r\nimport \"@openzeppelin/contracts/token/ERC721/ERC721.sol\";\r\nimport \"@openzeppelin/contracts/token/ERC721/extensions/ERC721Enumerable.sol\";\r\n// import \"../node_modules/@openzeppelin/contracts/token/ERC721/ERC721.sol\"\r\ncontract CryptoCoders is ERC721, ERC721Enumerable{\r\n\r\n    string[] public coders;\r\n\r\n    mapping(string => bool) _coderExists;\r\n\r\n    constructor() ERC721(\"CryptoCoders\",\"CSS\"){}\r\n\r\n    function mint(string memory coder) public{\r\n        require(_coderExists[coder] != true); // making sure coder does not exist already\r\n        coders.push(coder);  //pushing new coder's name\r\n        uint _id = coders.length - 1;\r\n        _mint(msg.sender, _id);\r\n        _coderExists[coder] = true; // making this so we can know who already exist\r\n\r\n    }\r\n\r\n    function _beforeTokenTransfer(address from, address to, uint256 tokenId) internal override(ERC721, ERC721Enumerable){\r\n            super._beforeTokenTransfer(from, to, tokenId);\r\n    }\r\n    // we made these functions because ERC721Enumerable was giving error \r\n    // becuase both external contracts has same name of function\r\n    // which was making a override error\r\n    function supportsInterface(bytes4 interfaceId) public view override(ERC721,ERC721Enumerable) returns(bool){\r\n        return super.supportsInterface(interfaceId);\r\n    }\r\n\r\n\r\n}\r\n",
  "sourcePath": "F:\\Minting Website\\contracts\\CryptoCoders.sol",
  "compiler": {
    "name": "solc",
    "version": "0.8.11+commit.d7f03943.Emscripten.clang"
  },
  "schemaVersion": "3.4.9",
  "updatedAt": "2022-09-05T08:27:41.048Z",
  "devdoc": {
    "kind": "dev",
    "methods": {
      "approve(address,uint256)": {
        "details": "See {IERC721-approve}."
      },
      "balanceOf(address)": {
        "details": "See {IERC721-balanceOf}."
      },
      "getApproved(uint256)": {
        "details": "See {IERC721-getApproved}."
      },
      "isApprovedForAll(address,address)": {
        "details": "See {IERC721-isApprovedForAll}."
      },
      "name()": {
        "details": "See {IERC721Metadata-name}."
      },
      "ownerOf(uint256)": {
        "details": "See {IERC721-ownerOf}."
      },
      "safeTransferFrom(address,address,uint256)": {
        "details": "See {IERC721-safeTransferFrom}."
      },
      "safeTransferFrom(address,address,uint256,bytes)": {
        "details": "See {IERC721-safeTransferFrom}."
      },
      "setApprovalForAll(address,bool)": {
        "details": "See {IERC721-setApprovalForAll}."
      },
      "symbol()": {
        "details": "See {IERC721Metadata-symbol}."
      },
      "tokenByIndex(uint256)": {
        "details": "See {IERC721Enumerable-tokenByIndex}."
      },
      "tokenOfOwnerByIndex(address,uint256)": {
        "details": "See {IERC721Enumerable-tokenOfOwnerByIndex}."
      },
      "tokenURI(uint256)": {
        "details": "See {IERC721Metadata-tokenURI}."
      },
      "totalSupply()": {
        "details": "See {IERC721Enumerable-totalSupply}."
      },
      "transferFrom(address,address,uint256)": {
        "details": "See {IERC721-transferFrom}."
      }
    },
    "version": 1
  },
  "userdoc": {
    "kind": "user",
    "methods": {},
    "version": 1
  }
}